{
  "contractName": "FlipContract",
  "abi": [
    {
      "anonymous": false,
      "inputs": [
        {
          "indexed": true,
          "internalType": "address",
          "name": "previousOwner",
          "type": "address"
        },
        {
          "indexed": true,
          "internalType": "address",
          "name": "newOwner",
          "type": "address"
        }
      ],
      "name": "OwnershipTransferred",
      "type": "event"
    },
    {
      "anonymous": false,
      "inputs": [
        {
          "indexed": true,
          "internalType": "address",
          "name": "user",
          "type": "address"
        },
        {
          "indexed": true,
          "internalType": "uint256",
          "name": "bet",
          "type": "uint256"
        },
        {
          "indexed": true,
          "internalType": "bool",
          "name": "win",
          "type": "bool"
        },
        {
          "indexed": false,
          "internalType": "uint8",
          "name": "side",
          "type": "uint8"
        }
      ],
      "name": "bet",
      "type": "event"
    },
    {
      "anonymous": false,
      "inputs": [
        {
          "indexed": false,
          "internalType": "address",
          "name": "owner",
          "type": "address"
        },
        {
          "indexed": false,
          "internalType": "uint256",
          "name": "funding",
          "type": "uint256"
        }
      ],
      "name": "funded",
      "type": "event"
    },
    {
      "inputs": [],
      "name": "ContractBalance",
      "outputs": [
        {
          "internalType": "uint256",
          "name": "",
          "type": "uint256"
        }
      ],
      "stateMutability": "view",
      "type": "function",
      "constant": true
    },
    {
      "inputs": [],
      "name": "owner",
      "outputs": [
        {
          "internalType": "address",
          "name": "",
          "type": "address"
        }
      ],
      "stateMutability": "view",
      "type": "function",
      "constant": true
    },
    {
      "inputs": [],
      "name": "renounceOwnership",
      "outputs": [],
      "stateMutability": "nonpayable",
      "type": "function"
    },
    {
      "inputs": [
        {
          "internalType": "address",
          "name": "newOwner",
          "type": "address"
        }
      ],
      "name": "transferOwnership",
      "outputs": [],
      "stateMutability": "nonpayable",
      "type": "function"
    },
    {
      "inputs": [
        {
          "internalType": "uint8",
          "name": "side",
          "type": "uint8"
        }
      ],
      "name": "flip",
      "outputs": [],
      "stateMutability": "payable",
      "type": "function",
      "payable": true
    },
    {
      "inputs": [],
      "name": "withdrawAll",
      "outputs": [
        {
          "internalType": "uint256",
          "name": "",
          "type": "uint256"
        }
      ],
      "stateMutability": "nonpayable",
      "type": "function"
    },
    {
      "inputs": [],
      "name": "getBalance",
      "outputs": [
        {
          "internalType": "uint256",
          "name": "",
          "type": "uint256"
        }
      ],
      "stateMutability": "view",
      "type": "function",
      "constant": true
    },
    {
      "inputs": [],
      "name": "fundContract",
      "outputs": [],
      "stateMutability": "payable",
      "type": "function",
      "payable": true
    }
  ],
  "bytecode": "0x608060405234801561001057600080fd5b5061002d61002261003260201b60201c565b61003a60201b60201c565b6100fe565b600033905090565b60008060009054906101000a900473ffffffffffffffffffffffffffffffffffffffff169050816000806101000a81548173ffffffffffffffffffffffffffffffffffffffff021916908373ffffffffffffffffffffffffffffffffffffffff1602179055508173ffffffffffffffffffffffffffffffffffffffff168173ffffffffffffffffffffffffffffffffffffffff167f8be0079c531659141344cd1fd0a4f28419497f9722a3daafe3b4186f6b6457e060405160405180910390a35050565b610d4a8061010d6000396000f3fe60806040526004361061007b5760003560e01c8063853828b61161004e578063853828b6146101095780638da5cb5b14610134578063bd097e211461015f578063f2fde38b146101695761007b565b806312065fe0146100805780633b668059146100ab578063638c0637146100d6578063715018a6146100f2575b600080fd5b34801561008c57600080fd5b50610095610192565b6040516100a291906109cd565b60405180910390f35b3480156100b757600080fd5b506100c061019c565b6040516100cd91906109cd565b60405180910390f35b6100f060048036038101906100eb9190610827565b6101a2565b005b3480156100fe57600080fd5b50610107610347565b005b34801561011557600080fd5b5061011e6103cf565b60405161012b91906109cd565b60405180910390f35b34801561014057600080fd5b506101496104d1565b6040516101569190610909565b60405180910390f35b6101676104fa565b005b34801561017557600080fd5b50610190600480360381019061018b91906107fe565b610610565b005b6000600154905090565b60015481565b6002346101af9190610a6a565b4710156101f1576040517f08c379a00000000000000000000000000000000000000000000000000000000081526004016101e89061094d565b60405180910390fd5b60008160ff161480610206575060018160ff16145b610245576040517f08c379a000000000000000000000000000000000000000000000000000000000815260040161023c906109ad565b60405180910390fd5b60008160ff166002426102589190610b41565b14156102d35734600160008282546102709190610ac4565b925050819055503373ffffffffffffffffffffffffffffffffffffffff166108fc60023461029e9190610a6a565b9081150290604051600060405180830381858888f193505050501580156102c9573d6000803e3d6000fd5b50600190506102f1565b34600160008282546102e59190610a14565b92505081905550600090505b801515343373ffffffffffffffffffffffffffffffffffffffff167f271b3e8d94a67ce5e9cee03d78c310019308ea7075468a4eb2bac8b027b14c4d8560405161033b91906109e8565b60405180910390a45050565b61034f610708565b73ffffffffffffffffffffffffffffffffffffffff1661036d6104d1565b73ffffffffffffffffffffffffffffffffffffffff16146103c3576040517f08c379a00000000000000000000000000000000000000000000000000000000081526004016103ba9061098d565b60405180910390fd5b6103cd6000610710565b565b60006103d9610708565b73ffffffffffffffffffffffffffffffffffffffff166103f76104d1565b73ffffffffffffffffffffffffffffffffffffffff161461044d576040517f08c379a00000000000000000000000000000000000000000000000000000000081526004016104449061098d565b60405180910390fd5b3373ffffffffffffffffffffffffffffffffffffffff166108fc479081150290604051600060405180830381858888f19350505050158015610493573d6000803e3d6000fd5b50600047146104cb577f4e487b7100000000000000000000000000000000000000000000000000000000600052600160045260246000fd5b47905090565b60008060009054906101000a900473ffffffffffffffffffffffffffffffffffffffff16905090565b610502610708565b73ffffffffffffffffffffffffffffffffffffffff166105206104d1565b73ffffffffffffffffffffffffffffffffffffffff1614610576576040517f08c379a000000000000000000000000000000000000000000000000000000000815260040161056d9061098d565b60405180910390fd5b600034141561058457600080fd5b34600160008282546105969190610a14565b925050819055507fed7d0ddcc17abdb3935a0a23cd93e91b449dfeac7fd0def9f481ed5b37e18c4d33346040516105ce929190610924565b60405180910390a1476001541461060e577f4e487b7100000000000000000000000000000000000000000000000000000000600052600160045260246000fd5b565b610618610708565b73ffffffffffffffffffffffffffffffffffffffff166106366104d1565b73ffffffffffffffffffffffffffffffffffffffff161461068c576040517f08c379a00000000000000000000000000000000000000000000000000000000081526004016106839061098d565b60405180910390fd5b600073ffffffffffffffffffffffffffffffffffffffff168173ffffffffffffffffffffffffffffffffffffffff1614156106fc576040517f08c379a00000000000000000000000000000000000000000000000000000000081526004016106f39061096d565b60405180910390fd5b61070581610710565b50565b600033905090565b60008060009054906101000a900473ffffffffffffffffffffffffffffffffffffffff169050816000806101000a81548173ffffffffffffffffffffffffffffffffffffffff021916908373ffffffffffffffffffffffffffffffffffffffff1602179055508173ffffffffffffffffffffffffffffffffffffffff168173ffffffffffffffffffffffffffffffffffffffff167f8be0079c531659141344cd1fd0a4f28419497f9722a3daafe3b4186f6b6457e060405160405180910390a35050565b6000813590506107e381610ce6565b92915050565b6000813590506107f881610cfd565b92915050565b60006020828403121561081057600080fd5b600061081e848285016107d4565b91505092915050565b60006020828403121561083957600080fd5b6000610847848285016107e9565b91505092915050565b61085981610af8565b82525050565b600061086c602183610a03565b915061087782610bd0565b604082019050919050565b600061088f602683610a03565b915061089a82610c1f565b604082019050919050565b60006108b2602083610a03565b91506108bd82610c6e565b602082019050919050565b60006108d5602283610a03565b91506108e082610c97565b604082019050919050565b6108f481610b2a565b82525050565b61090381610b34565b82525050565b600060208201905061091e6000830184610850565b92915050565b60006040820190506109396000830185610850565b61094660208301846108eb565b9392505050565b600060208201905081810360008301526109668161085f565b9050919050565b6000602082019050818103600083015261098681610882565b9050919050565b600060208201905081810360008301526109a6816108a5565b9050919050565b600060208201905081810360008301526109c6816108c8565b9050919050565b60006020820190506109e260008301846108eb565b92915050565b60006020820190506109fd60008301846108fa565b92915050565b600082825260208201905092915050565b6000610a1f82610b2a565b9150610a2a83610b2a565b9250827fffffffffffffffffffffffffffffffffffffffffffffffffffffffffffffffff03821115610a5f57610a5e610b72565b5b828201905092915050565b6000610a7582610b2a565b9150610a8083610b2a565b9250817fffffffffffffffffffffffffffffffffffffffffffffffffffffffffffffffff0483118215151615610ab957610ab8610b72565b5b828202905092915050565b6000610acf82610b2a565b9150610ada83610b2a565b925082821015610aed57610aec610b72565b5b828203905092915050565b6000610b0382610b0a565b9050919050565b600073ffffffffffffffffffffffffffffffffffffffff82169050919050565b6000819050919050565b600060ff82169050919050565b6000610b4c82610b2a565b9150610b5783610b2a565b925082610b6757610b66610ba1565b5b828206905092915050565b7f4e487b7100000000000000000000000000000000000000000000000000000000600052601160045260246000fd5b7f4e487b7100000000000000000000000000000000000000000000000000000000600052601260045260246000fd5b7f54686520636f6e7472616374206861736e277420656e6f756768742066756e6460008201527f7300000000000000000000000000000000000000000000000000000000000000602082015250565b7f4f776e61626c653a206e6577206f776e657220697320746865207a65726f206160008201527f6464726573730000000000000000000000000000000000000000000000000000602082015250565b7f4f776e61626c653a2063616c6c6572206973206e6f7420746865206f776e6572600082015250565b7f496e636f727265637420736964652c206e6565647320746f2062652030206f7260008201527f2031000000000000000000000000000000000000000000000000000000000000602082015250565b610cef81610af8565b8114610cfa57600080fd5b50565b610d0681610b34565b8114610d1157600080fd5b5056fea26469706673582212205bec664297df960b5acda201c2bb05ca24141fcd5d00a1b1d23a7602b63bb01f64736f6c63430008020033",
  "immutableReferences": {},
  "source": "//SPDX-Lincense-Identifier: MIT\r\n\r\nimport \"../node_modules/@openzeppelin/contracts/access/Ownable.sol\";\r\n\r\npragma solidity ^0.8.2;\r\n\r\ncontract FlipContract is Ownable {\r\n    uint256 public ContractBalance;\r\n\r\n    event bet(\r\n        address indexed user,\r\n        uint256 indexed bet,\r\n        bool indexed win,\r\n        uint8 side\r\n    );\r\n    event funded(address owner, uint256 funding);\r\n\r\n    // Function to simulate coin flip 50/50 randomnes\r\n    function flip(uint8 side) public payable {\r\n        require(\r\n            address(this).balance >= msg.value * 2,\r\n            \"The contract hasn't enought funds\"\r\n        );\r\n        require(side == 0 || side == 1, \"Incorrect side, needs to be 0 or 1\");\r\n        bool win;\r\n        if (block.timestamp % 2 == side) {\r\n            ContractBalance -= msg.value;\r\n            payable(msg.sender).transfer(msg.value * 2);\r\n            win = true;\r\n        } else {\r\n            ContractBalance += msg.value;\r\n            win = false;\r\n        }\r\n        emit bet(msg.sender, msg.value, win, side);\r\n    }\r\n\r\n    // Function to Withdraw Funds\r\n    function withdrawAll() public onlyOwner returns (uint256) {\r\n        payable(msg.sender).transfer(address(this).balance);\r\n        assert(address(this).balance == 0);\r\n        return address(this).balance;\r\n    }\r\n\r\n    // Function to get the Balance of the Contract\r\n    function getBalance() public view returns (uint256) {\r\n        return ContractBalance;\r\n    }\r\n\r\n    // Fund the Contract\r\n    function fundContract() public payable onlyOwner {\r\n        require(msg.value != 0);\r\n        ContractBalance += msg.value;\r\n        emit funded(msg.sender, msg.value);\r\n        assert(ContractBalance == address(this).balance);\r\n    }\r\n}\r\n",
  "sourcePath": "C:\\Users\\Misirov\\Desktop\\vanilla-frontEnd\\truffle\\contracts\\flipcontract.sol",
  "compiler": {
    "name": "solc",
    "version": "0.8.2+commit.661d1103.Emscripten.clang"
  },
  "schemaVersion": "3.4.3",
  "updatedAt": "2021-10-07T18:31:14.707Z",
  "networkType": "ethereum",
  "devdoc": {
    "kind": "dev",
    "methods": {
      "owner()": {
        "details": "Returns the address of the current owner."
      },
      "renounceOwnership()": {
        "details": "Leaves the contract without owner. It will not be possible to call `onlyOwner` functions anymore. Can only be called by the current owner. NOTE: Renouncing ownership will leave the contract without an owner, thereby removing any functionality that is only available to the owner."
      },
      "transferOwnership(address)": {
        "details": "Transfers ownership of the contract to a new account (`newOwner`). Can only be called by the current owner."
      }
    },
    "version": 1
  },
  "userdoc": {
    "kind": "user",
    "methods": {},
    "version": 1
  }
}